:020000040800F2
:10000000D806002091010008C3130008031300085C
:10001000C11300085F050008471600080000000033
:10002000000000000000000000000000DB150008D8
:100030006105000800000000C5130008DD15000878
:10004000AB010008AB010008AB010008AB010008E0
:10005000AB010008AB010008AB010008AB010008D0
:10006000AB010008AB010008AB010008AB010008C0
:10007000AB010008AB010008AB010008AB010008B0
:10008000AB010008AB010008AB010008AB010008A0
:10009000AB010008AB010008AB010008AB01000890
:1000A000AB010008AB010008AB010008AB01000880
:1000B000AB010008AB010008AB010008AB01000870
:1000C000AB010008AB010008AB010008AB01000860
:1000D000AB010008AB010008AB010008AB01000850
:1000E000AB010008AB010008AB01000800F002F80A
:1000F00000F03FF80AA090E8000C82448344AAF183
:100100000107DA4501D100F034F8AFF2090EBAE880
:100110000F0013F0010F18BFFB1A43F0010318473B
:100120004419000064190000103A24BF78C878C14F
:10013000FAD8520724BF30C830C144BF04680C60ED
:10014000704700000023002400250026103A28BF35
:1001500078C1FBD8520728BF30C148BF0B60704739
:10016000642900F04980002070471FB51FBD10B5FD
:1001700010BD00F0BAF91146FFF7F7FF01F0BEFB22
:1001800000F0D8F903B4FFF7F2FF03BC00F0E0F988
:100190000948804709480047FEE7FEE7FEE7FEE71B
:1001A000FEE7FEE7FEE7FEE7FEE7FEE70448054957
:1001B000054A064B7047000045160008ED00000890
:1001C000D8000020D8060020D8020020D802002045
:1001D0000FB41CB5074B06AA7B44694600900598EE
:1001E00000F06BF90020694600F07AF91CBC5DF85C
:1001F00014FB0000050300002DE9F0410646002431
:1002000010687529314616A510D0AFF3008000287C
:1002100002DA404213A507E031688A0701D512A52A
:1002200002E0490704D511A5012401E0AFF30080E5
:1002300000210A2206F1240709E0B0FBF2FCB0FB22
:10024000F2F302FB1C00303078541846491C002899
:10025000F3D123462A463046BDE8F04100F0CEB83F
:10026000000000002D0000002B0000002000000016
:100270002DE9F05F894604464FF0000ADFF824B10B
:10028000FB44C0F820A02046E168884700287DD0C4
:10029000252806D0D4E901219047206A401C20621D
:1002A000F1E700255F462046E1688847202806469A
:1002B00007DB312E05D2B81910F8200C08B1054320
:1002C000F1E7A80701D525F00405C4F81CA0002714
:1002D000C4F818A02A2E09D0304601F0C5F938B369
:1002E00004EB8708303EC8F8186019E059F8041B81
:1002F000204604EB87029161E1688847012F06469A
:1003000018D1E069002820DA25F020051DE0D8F892
:10031000180000EB800006EB40003038C8F81800E9
:100320002046E1688847064601F09EF90028EED194
:10033000012F0AD02E2E08D12046E16888477F1C65
:100340000646022F45F02005C4DBA069002803DA29
:10035000404245F00105A061E80701D025F01005F5
:10036000A6B1A6F14100192802D8203645F400654F
:100370004A463146204625604D46FFF7F1FE60B102
:10038000012807D0ED1D25F0070000E007E000F18F
:10039000080978E705F1040975E730467AE7206A2D
:1003A000BDE8F09FCC1700004FF0000200B51346E7
:1003B00094469646203922BFA0E80C50A0E80C5085
:1003C000B1F12001BFF4F7AF090728BFA0E80C5036
:1003D00048BF0CC05DF804EB890028BF40F8042B2F
:1003E00008BF704748BF20F8022B11F0804F18BF9C
:1003F00000F8012B70477047704770472DE9F047B0
:100400000D4699469246044600F124080168880684
:1004100004D5E06921F01001216000E00120A8422C
:1004200001DD471B00E00027A1697A1902EB0900F2
:10043000081AA0612078C00602D42046AFF30080DD
:10044000002608E0D4E901211AF806009047206A46
:10045000401C761C20624E45F4DB2078C0060AD58D
:100460002046AFF3008006E0D4E901213020904718
:10047000206A401C2062381EA7F10107F4DC07E067
:10048000D4E9012118F805009047206A401C206239
:10049000281EA5F10105F3DC2046AFF3008020788B
:1004A000000602D50220BDE8F0870120FBE700002E
:1004B00001694A1C02610878704700B58FB0CDE928
:1004C00001310021059105497944CDE90310114618
:1004D0006846FFF7CDFE0FB000BD0000E5FFFFFF4F
:1004E0000A6802F8010B0A607047754600F02CF8A4
:1004F000AE4605006946534620F00700854618B011
:1005000020B5FFF753FEBDE820404FF000064FF046
:1005100000074FF000084FF0000B21F00701AC4638
:10052000ACE8C009ACE8C009ACE8C009ACE8C00957
:100530008D46704710B50446AFF300802046BDE8F5
:100540001040FFF71FBE00000048704778000020F1
:1005500001491820ABBEFEE7260002007047FEE707
:100560007047000070B5044600F008F90546601CAD
:1005700002D004480078044400F000F9401BA04277
:10058000FAD370BD140000202DE9F84FDFF8B891C0
:10059000002409F1040A0AF1040B23460F270BF18A
:1005A000040EC9E00125A5402A40AA427DD1674E2C
:1005B000D1F804C0ACEB0608B44532D014DCBCF171
:1005C000030F3AD009DCBCF1000F2AD0BCF1010FB7
:1005D0001CD0BCF1020F31D11DE0BCF1110F17D0BE
:1005E000BCF1120F2AD119E0B8F5881F19D006DC2A
:1005F000B8F5803F15D0B8F5801F1FD111E0B8F5D0
:10060000001F0ED0B8F5041F18D10AE0CB6815E022
:10061000CB681B1D12E0CB6808330FE0CB680C33AE
:100620000CE08B682BB1012B4FF0080303D0456120
:1006300004E0042302E0056100E00023FF2A01D862
:10064000064601E000F104064FEA840501D9A5F150
:100650002005D6F8008007FA05FC28EA0C0803FA02
:1006600005F548EA0508C6F800804D68ED0062D53A
:10067000374DAE6946F00106AE61AD6924F0030660
:1006800005F001050095334D06EB050CDCF808502C
:10069000A607360F07FA06F825EA0805DFF8B8803E
:1006A000404503D14FF0000817E044E0DFF8AC808C
:1006B000404502D14FF001080FE0DFF8A48040452B
:1006C00002D14FF0020808E0DFF89880404502D1DF
:1006D0004FF0030801E04FF0040808FA06F848EA72
:1006E0000508CCF808804D68D9F80060ED034D4648
:1006F00001D5164300E096432E604D68DAF800609D
:10070000AD03554601D5164300E096432E604D6873
:10071000DBF80060ED025D4601D5164300E096432C
:100720002E604D68DEF80060AD02754601D51643B7
:1007300000E096432E60641C0D682A46E5407FF475
:1007400031AFBDE8F88F0000000401400000111037
:10075000001002400000014000080140000C014070
:1007600000100140001401408068084000D00120C2
:1007700070470AB1016170470904FBE701488068CE
:10078000704700001400002002488168027811447C
:100790008160704714000020074810B5016841F0DF
:1007A00010010160032000F067F80F2000F006F848
:1007B00000F024F8002010BD0020024070B50D4D5F
:1007C00004464FF47A712878B1FBF0F00A490968C1
:1007D000B1FBF0F000F081FD48B9102C07D20022E7
:1007E0002146501E00F028F800206C6070BD0120EA
:1007F00070BD000014000020200000200C4808B547
:10080000816941F001018161816901F0010100917B
:10081000C16941F08051C161C06900F08050009011
:100820000448416821F0E06141F00071416008BD79
:100830000010024000000140F0B40E4B1B680C4653
:10084000C3F30223C3F10705042D00D90425191DA4
:10085000072901D2002300E0DB1E012606FA05F17C
:10086000491E214099409E40761E16403143F0BCFF
:1008700000F0EABE0CED00E0064900F0070208684F
:100880004FF6FF03184040EA0220034A1043086075
:10089000704700000CED00E00000FA05014901205E
:1008A0000862704700000E4210B529A401461DCC15
:1008B00086B08DE81D002AA02A4C00680490002014
:1008C000012923D002293AD010291DD1616822685C
:1008D000D20119D5C1F38342C9031DF8020009D51D
:1008E000616804AAC1F34041515C1F4AB2FBF1F1B7
:1008F000484301E01D4948436168490204D440006F
:100900005FF00301B0FBF1F006B010BD226AC2F344
:100910000121012903D1920701D5C803F4E7022977
:1009200005D1626A920702D549F64040ECE70329F7
:10093000EAD121688903E7D54FF22440E4E700F0CB
:1009400023F96168C1F38131491C4900DAE70000ED
:1009500002030405060708090A0B0C0D0E0F101000
:10096000010200000010024000127A0000093D0060
:100970002DE9F84305460078354CC00754D0E069AE
:100980000026C00008D4E06940F08050E061E069D2
:10099000012600F0805000902E480168C90512D44D
:1009A0000168804641F480710160FFF7E7FE074669
:1009B00005E000BFFFF7E2FEC01B642823D8D8F88B
:1009C0000000C005F6D5206A10F4407021D0A98837
:1009D00001F4407181421CD0206A1F49012220F499
:1009E00040700A6000220A602062C00711D0FFF741
:1009F000C5FE074641F2883808E000BFFFF7BEFE9B
:100A0000C11B414502D90320BDE8F883206A800755
:100A1000F4D5206A696820F44070084320621EB152
:100A2000E06920F08050E0612878800705D5606893
:100A3000A96820F44040084360602878C00605D5C6
:100A40006068E96820F48000084360600020DBE70C
:100A50000010024000700040400442422DE9F0477F
:100A60000F46050061D0434E306800F00700B842E1
:100A700009D2306820F0070038433060306800F059
:100A80000700B84251D128683B4C810712D5400776
:100A900003D5606840F4E06060602878000703D503
:100AA000606840F4605060606068A96820F0F00001
:100AB000084360602878C00728D06868012810D0F3
:100AC0002168022810D0890700292EDA616821F0F8
:100AD000030101436160FFF751FE804641F288390E
:100AE0000DE021688903EFE78901EDE7FFF746FE96
:100AF000A0EB0801494502D90320BDE8F0876068F2
:100B0000696800F00C00B0EB810FEFD1306800F0A5
:100B10000700B8420BD9306820F007003843306036
:100B2000306800F00700B84201D00120E5E72878DE
:100B3000400705D56068E96820F4E060084360601C
:100B40002878000706D56068296920F4605040EADB
:100B5000C100606000F028F86168084AC1F3031121
:100B6000515CC8400649086006480068FFF726FE49
:100B70000020C2E70020024000100240381A00089E
:100B8000200000201800002004480549006849683A
:100B9000044AC1F3C221515CC840704720000020C4
:100BA00000100240481A000812A185B00FC98DE854
:100BB0000F0014A0144A006804905168134801F013
:100BC0000C03042B10D0082B0ED1C1F38343C903AF
:100BD0001DF803000AD5516804AAC1F34041515CD5
:100BE0000A4A5043B0FBF1F005B07047084948434A
:100BF000FAE7000002030405060708090A0B0C0DBA
:100C00000E0F1010010200000010024000127A00C6
:100C100000093D002DE9F84F040070D02078C04D48
:100C2000C00749D06868C0F38100012807D0686810
:100C3000C0F38100022809D16868C00306D528687E
:100C4000800339D560680028E7D035E06068B0F5EA
:100C5000803F0BD010B1B0F5A02F11D0286820F440
:100C600080302860286820F4802002E0286840F462
:100C700080302860606890B1FFF780FD06460AE08A
:100C8000286840F480202860F0E700BFFFF776FD79
:100C9000801B642873D828688003F7D50CE0FFF721
:100CA0006DFD064605E000BFFFF768FD801B642868
:100CB000F0D828688003F7D420789A4E80074FF048
:100CC00001094FF0000839D5686810F00C0F07D003
:100CD0006868C0F38100022809D16868C00306D49F
:100CE0002868800714D52069012808D110E0206900
:100CF000B0B1C6F80090FFF741FD074605E00AE1F4
:100D0000FFF73CFDC01B0228C4D828688007F7D530
:100D10002868616920F0F80040EAC10028600DE011
:100D2000C6F80080FFF72AFD074604E0FFF726FD1E
:100D3000C01B022823D828688007F7D42078000732
:100D40002CD57948A169D9B1C0F80090FFF716FDFC
:100D5000074604E0FFF712FDC01B02280FD8686A9F
:100D60008007F7D571484FF4FA510068B0FBF1F0F5
:100D7000009000BF0098411E0091FAD20EE080E082
:100D8000C0F80080FFF7FAFC074604E0FFF7F6FC26
:100D9000C01B022875D8686A8007F7D420784007FE
:100DA00060D5E8690027C00008D4E86940F08050A9
:100DB000E861E869012700F0805000905C48016814
:100DC000C90513D40168834641F480710160FFF7BF
:100DD000D5FC824606E000BFFFF7D0FCA0EB0A007E
:100DE00064284ED8DBF80000C005F5D5E06801287E
:100DF0000AD008B1052813D0286A20F00100286223
:100E0000286A20F0040002E0286A40F0010028620D
:100E1000E06841F2883B98B1FFF7B0FC82460BE0F6
:100E2000286A40F004002862EEE700BFFFF7A6FC46
:100E3000A0EB0A0159455AD8286A8007F6D50CE07C
:100E4000FFF79CFC824605E0FFF798FCA0EB0A0147
:100E500059454CD8286A8007F6D41FB1E86920F0BC
:100E60008050E861E06988B36968C1F381010229B3
:100E700044D00228C6F8608004D0FFF77FFC044607
:100E800038E034E0FFF77AFC074604E0FFF776FC31
:100E9000C01B02282BD828688001F7D4206AB0F53F
:100EA000803F05D16868A16820F40030084368607D
:100EB000D4E908010843696821F4741108436860A3
:100EC000C6F86090FFF75AFC044606E025E000BF34
:100ED000FFF754FC001B022809D828688001F7D5C9
:100EE0001BE000BFFFF74AFC001B022802D90320C9
:100EF000BDE8F88F28688001F4D40EE00128F7D00F
:100F00006868226A00F48031914204D1616A00F479
:100F10007010884201D00120EAE70020E8E70000D5
:100F200000100240000042428004424220000020A3
:100F300000700040F8B505004FF0000016460C4662
:100F4000009006D02CB100226946284600F019F81E
:100F500008B10120F8BD287B2070E87BE070697B38
:100F60006170A97BA17056B100F036FAE07060782C
:100F700000F032FA6070A07800F02EFAA070002025
:100F8000F8BD2DE9F04791460C465FEA00084AD0CB
:100F900084B3D8F800004068400744D4404600F0CD
:100FA000B9FA4FF461620546B0FBF2F1B0FBF2F31F
:100FB00002FB13503C23B0FBF3F0B5FBF2F660707C
:100FC00002FB1650B0FBF3F203FB1200A0701829CD
:100FD00031D31820B1FBF0F7B1FBF0F200FB121097
:100FE0002070404600F08FFA411C04D0A84202D97C
:100FF000461B02E017E04FF0FF36A7EB071000EBAF
:101000004000C0EB001005EBC0152946404600F03B
:10101000D0FA40B9701C01D0711900E03146404649
:1010200000F0B3FA10B10120BDE8F0873946404620
:1010300000F0DDF900E02170B9F1000F0BD020784D
:1010400000F0CAF92070607800F0C6F96070A078EE
:1010500000F0C2F9A0700020E6E7000070B50400BF
:1010600003D0607C002610B105E0012070BD26741D
:10107000204600F043F802206074204600F010F98A
:10108000042578BB204600F009FA58BB2068416867
:1010900021F007014160A06820B11748016821F0E4
:1010A000010101601448001F0168A26821F4607109
:1010B000114301606068411C04D10120FFF7F4FB7B
:1010C00080B1401E21688A6822F00F0242EA104275
:1010D0008A602168CA6860F30F02CA60204600F087
:1010E000F7F908B16574C0E7E67301206073A07377
:1010F0006074002070BD0000306C004008B50068CE
:10110000084988420DD1FFF7C9FB0748C16941F082
:101110000061C161C069054900F0006000900120D4
:10112000086008BD00280040001002403C04424214
:101130002DE9F0410D4604003BD0C5B3207C0128C9
:101140003AD04FF0010884F8108002206074E878EB
:1011500072B300F038F9E073687800F034F9607326
:10116000A87800F030F9A073C2B2617BE07B00F098
:10117000E1F920732870204600F0CCF94FF461614A
:10118000B0FBF1F1002518292DD91822B1FBF2F19D
:10119000A1EB011101EB4101C1EB011100EBC11603
:1011A0003146204600F005FA0427C8B90BE000E0FC
:1011B00004E00120BDE8F0810220FBE7E0736878DD
:1011C0006073A878CFE7204600F09DF9411C0AD053
:1011D000B04208D206490144204600F0D6F910B1C9
:1011E00067742574E5E784F8118025740020E1E731
:1011F000805101002DE9F0410D46040024D01DB3BB
:10120000207C012823D04FF0010884F810800220B0
:1012100060742878EAB100F0D6F84FF4616100FB01
:1012200001F6687800F0CFF8C0EB001006EB8006FE
:10123000A87800F0C8F835182946204600F0B9F91A
:101240000026042710BB0FE00120BDE8F08102203A
:10125000FBE74FF4616148436978C1EB011100EB92
:101260008100A9784518E7E72068416821F0050169
:101270004160204600F047F9411C0AD0A84208D23C
:1012800006490144204600F080F910B167742674C5
:10129000DAE784F8118026740020D6E78051010037
:1012A00070B504000AD02068416821F0080141604F
:1012B000FFF764FA05464FF47A7608E0012070BD26
:1012C000FFF75CFA401BB04201D9032070BD2068D3
:1012D00040680007F4D5002070BD10B5401EB0F185
:1012E000807F01D3012010BD4FF0E02460610F2109
:1012F000601700F0A9F90020A061072020610020FC
:1013000010BDFEE72DE9F04385B000242948009484
:10131000019402940394816941F010018161816913
:1013200001F010010491816941F02001816181691E
:1013300001F020010491816941F00401816181691A
:1013400001F004010491816941F008018161806923
:10135000DFF8648000F0080004900022F621404687
:10136000FFF707FADFF854904FF480570022394610
:101370004846FFF7FEF9F62001250226CDE90005D3
:10138000CDE9024669464046FFF7FEF8009703960E
:10139000CDE9015469464846FFF7F6F86803CDE900
:1013A0000004694648460294FFF7EEF805B0BDE830
:1013B000F08300000010024000080140000C0140D2
:1013C000FEE7FEE77047010901EB810100F00F0025
:1013D00000EB4100C0B27047002102E00A38C0B201
:1013E000491C0A28FAD2090740EA116070472DE922
:1013F000F04104460025C07B627BA37B42E0012ACA
:1014000016D0032A14D0052A12D0072A10D0082A91
:101410000ED00A2A0CD00C2A0AD0042A10D0062A90
:101420000ED0092A0CD00B2A0AD0022A0DD028E0AF
:101430001F2B0CD30C2A05D101221346401C20E09F
:101440001E2B04D30123521C1BE01C2B02D203F1E0
:10145000010316E011D183B29E0710D16426B3FBBD
:10146000F6F706FB173636B94FF4C876B3FBF6F736
:1014700006FB17331BB91D2303E01D2B01D10322EB
:1014800001236D1C8D42BAD3D1B2E0736173DAB21D
:10149000A27300F04FF82073BDE8F08170B50446E8
:1014A000FFF76CF905464FF47A7606E0FFF766F928
:1014B000401BB04201D9032070BD206840688006FF
:1014C000F4D52068416841F010014160002070BDF2
:1014D00070B504460068416821F010014160FFF7D3
:1014E0004DF905464FF47A7607E000BFFFF746F95D
:1014F000401BB04201D9032070BD206840688006BF
:10150000F4D5002070BD0168086A496A89B241EAD1
:1015100000407047006881698AB2C1698BB28169F5
:1015200089B28A4203D0C06961F31F40704743EA21
:1015300002407047F0B56424C1EBC1030927A50040
:10154000072603EB01130329B3FBF7F100F5FA605B
:10155000114401440AD2401EB0FBF4F201EB9001A9
:10156000B0FBF5F0891A0844001D08E0B0FBF4F266
:1015700001EB9001B0FBF5F0891A0844801CB0FB28
:10158000F6F106FB1100C0B2F0BD70B50D4606467F
:101590000024FFF783FF48B93168280C08623168DE
:1015A000A8B248623046FFF793FF00B101242046FD
:1015B00070BD70B50D4606460024FFF76FFF48B9B1
:1015C0003168280C88613168A8B2C8613046FFF7DD
:1015D0007FFF00B10124204670BD7047FFF7D4B8EB
:1015E00070B594B028216846FEF7DEFE14210AA8E3
:1015F000FEF7DAFE00240F940520009001A9109454
:10160000119412944FF48030012581E831000226B4
:101610000495CDE90760C00009906846FFF7FAFA23
:101620000F200A90CDE90B640D9401210AA80E94B5
:10163000FFF714FA2802CDE90F500FA8FFF798F929
:1016400014B070BD7047FEE70907090E002804DBDF
:1016500000F1E02080F80014704700F00F0000F166
:10166000E02080F8141D704730380A2801D201208C
:1016700070470020704700002DE9F04F364A0346BE
:10168000106840F00400106033494FF00208083140
:10169000C1F8008010240C6020250D6040260E60EB
:1016A00080270F6000F0D0F8106840F00200106052
:1016B0002A4AD80601D5146002E04FF48010106069
:1016C00098064FF4001901D5156001E0C2F80090AA
:1016D00058064FF4800A01D5166001E0C2F800A058
:1016E00018064FF4000B01D5176001E0C2F800B0F6
:1016F00000F0AAF8C1F800800C600D600E600F6069
:1017000000F0A2F81448D0F800C04CF0020CC0F869
:1017100000C0D80701D0146002E04FF480101060C0
:10172000980701D5156001E0C2F80090580701D56F
:10173000166001E0C2F800A0180701D5176001E0AB
:10174000C2F800B000F080F8C1F800800C600D60B5
:101750000E600F60BDE8F08F0C08014010080140DA
:101760002DE9F04F37490346042008604FF0020985
:10177000C1F8009010240C6020250D6040260E60FA
:1017800080270F6000F060F8DFF8B880A8F1080843
:10179000D8F8002042F00202C8F80020D8064FF422
:1017A000801A08F1040201D5146001E0C2F800A01B
:1017B00098064FF4001B01D5156001E0C2F800B097
:1017C000580601D5166002E04FF48000106018063C
:1017D00001D5176002E04FF40000106000F034F80B
:1017E000C1F800900C600D600E600F6000F02CF8E6
:1017F000D8F800C04CF0020CC8F800C0D80701D0DF
:10180000146001E0C2F800A0980701D5156001E05E
:10181000C2F800B0580701D5166002E04FF480000E
:101820001060180701D5176002E04FF40000106047
:1018300000F00AF8C1F800900C600D600E600F60B7
:10184000BDE8F08F140801404FF47A70401EFDD1BE
:101850007047012805D0022805D1BF31C8B2FFF773
:101860007FBF7F31FAE7704770B5064614460D46D4
:10187000FA20FEF777FE0220FFF772FF3220FEF714
:1018800071FE2E43264346F02000FFF769FF322009
:10189000FEF768FE0620FFF763FF3220FEF762FEC8
:1018A0000E20FFF75DFF3220FEF75CFE0C20FFF7F5
:1018B00057FF3220FEF756FE0120FFF751FFBDE82B
:1018C00070406420FEF74EBE10B5044606E000BF2F
:1018D000FFF7BAFF14F8010BFFF7CEFE20780028BF
:1018E000F6D1BDE81040FFF7AFBF10B51446FFF7C3
:1018F000B0FF2046BDE81040FFF7E6BF08B5FEF791
:101900004BFFFFF76DFEFFF7FDFC424840490160C9
:101910004FF0FF3141604FF480718160FFF79EFB13
:10192000002108220846FFF79FFFDFF8F0803A4FBA
:101930004FF4005608F1030531463846FEF714FF10
:10194000012803D029E03220FEF70CFE314638464C
:10195000FEF70AFF0128F6D0012211033846FEF7F0
:1019600008FF172188F800103B2188F801102D216D
:1019700088F8021005202870012068701F20A870C8
:101980001520E870002225492248FFF733FC23493F
:101990000022C91C1F48FFF7CBFB00221F491D482E
:1019A000FFF7EFFA1D490022C91C1A48FFF7C2FAD7
:1019B0001A4C98F800200C3CE28098F80130238102
:1019C00098F802006081A978218069786180E978BF
:1019D000A18000900F4812A14038FEF7F9FBA088C3
:1019E00000900C48638822880DA12038FEF7F0FB98
:1019F000084A0121403A0846FFF777FF054A0121CE
:101A0000203A0220FFF771FFFA20FEF7ABFD93E7C3
:101A10000028004064000020000C01400C00002061
:101A200020202025302E32643A25302E32643A258B
:101A3000302E3264000000000000000000000000B2
:101A40000102030406070809000000000102030464
:101A50000400000800000000000000020001000077
:101A600010000000841A000800000020240000007C
:101A700028010008A81A000824000020B40600006D
:101A80004401000800000000000000000000000009
:101A90000000000000000000010000001000000035
:081AA000000000000024F40026
:04000005080000ED02
:00000001FF
